:100000000C94FE000C941B010C941B010C941B011E
:100010000C941B010C941B010C941B010C941B01F0
:100020000C941B010C941B010C941B010C941B01E0
:100030000C941B010C941B010C941B010C941B01D0
:100040000C941B010C941B010C941B010C941B01C0
:100050000C941B010C941B010C941B010C941B01B0
:100060000C941B010C941B010C941B010C941B01A0
:100070000C941B010C941B010C941B010C941B0190
:100080000C941B010C941B010C941B010C941B0180
:100090000C941B010C941B010C941B010C941B0170
:1000A0000C941B010C941B010C941B010C941B0160
:1000B0000C941B010C941B010C941B010C941B0150
:1000C0000C941B010C941B010C941B010C941B0140
:1000D0000C941B010C941B010C941B010C941B0130
:1000E0000C941B010C941B010C941B010C941B0120
:1000F0000C941B010C941B010C941B010C941B0110
:100100000C941B010C941B010C941B010C941B01FF
:100110000C941B010C941B010C941B010C941B01EF
:100120000C941B010C941B010C941B010C941B01DF
:100130000C941B010C941B010C941B010C941B01CF
:100140000C941B010C941B010C941B010C941B01BF
:100150000C941B010C941B010C941B010C941B01AF
:100160000C941B010C941B010C941B010C941B019F
:100170000C941B010C941B010C941B010C941B018F
:100180000C941B010C941B010C941B010C941B017F
:100190000C941B010C941B010C941B010C941B016F
:1001A0000C941B010C941B010C941B010C941B015F
:1001B0000C941B010C941B010C941B010C941B014F
:1001C0000C941B010C941B010C941B010C941B013F
:1001D0000C941B010C941B010C941B010C941B012F
:1001E0000C941B010C941B010C941B010C941B011F
:1001F0000C941B010C941B010C941B0111241FBEB9
:10020000CFEFDFE2DEBFCDBF10E2A0E0B0E2EEE66E
:10021000F3E002C005900D92AE30B107D9F710E2BD
:10022000AEE0B0E201C01D92A431B107E1F70E9437
:100230006D010C94B5010C940000E0E0F2E08081C7
:1002400081608083818184608183089588ED84BF8B
:10025000809150008660809350008091510086709C
:100260008630D9F788ED84BF81E080934000809389
:1002700060000895E0E4F6E08181886081838581F3
:1002800088608583E0EAF8E085EF86838CEC8783DD
:10029000858183608583848188618483089508953E
:1002A0009091A10895FFFCCF8093A00880E090E09A
:1002B00008958091A10887FFFCCF8091A00890E06D
:1002C0000895CF93DF9300D0CDB7DEB78FEF9FEFC8
:1002D00089839A8389819A81FDCF0E9426010E9499
:1002E0003A010E944F0180E090E280930E209093AB
:1002F0000F20809310209093112085E590E00E94BC
:100300008201FBCF60911020709111200E94890121
:1003100008950F931F93CF93DF938C01EB018B8193
:1003200081FF1BC082FF0DC02E813F818C819D818A
:100330002817390764F4E881F9810193E883F98388
:1003400006C0E885F985802F0995009731F48E81E4
:100350009F8101968E839F8302C00FEF1FEFC8011C
:0E036000DF91CF911F910F910895F894FFCF78
:0E036E000000000300000000500159010000D3
:00000001FF
